{
  "_format": "hh-sol-artifact-1",
  "contractName": "MetaToken",
  "sourceName": "contracts/MetaToken.sol",
  "abi": [
    {
      "inputs": [],
      "stateMutability": "nonpayable",
      "type": "constructor"
    },
    {
      "anonymous": false,
      "inputs": [
        {
          "indexed": true,
          "internalType": "address",
          "name": "owner",
          "type": "address"
        },
        {
          "indexed": true,
          "internalType": "address",
          "name": "approved",
          "type": "address"
        },
        {
          "indexed": true,
          "internalType": "uint256",
          "name": "tokenId",
          "type": "uint256"
        }
      ],
      "name": "Approval",
      "type": "event"
    },
    {
      "anonymous": false,
      "inputs": [
        {
          "indexed": true,
          "internalType": "address",
          "name": "owner",
          "type": "address"
        },
        {
          "indexed": true,
          "internalType": "address",
          "name": "operator",
          "type": "address"
        },
        {
          "indexed": false,
          "internalType": "bool",
          "name": "approved",
          "type": "bool"
        }
      ],
      "name": "ApprovalForAll",
      "type": "event"
    },
    {
      "anonymous": false,
      "inputs": [
        {
          "indexed": true,
          "internalType": "address",
          "name": "previousOwner",
          "type": "address"
        },
        {
          "indexed": true,
          "internalType": "address",
          "name": "newOwner",
          "type": "address"
        }
      ],
      "name": "OwnershipTransferred",
      "type": "event"
    },
    {
      "anonymous": false,
      "inputs": [
        {
          "indexed": true,
          "internalType": "address",
          "name": "from",
          "type": "address"
        },
        {
          "indexed": true,
          "internalType": "address",
          "name": "to",
          "type": "address"
        },
        {
          "indexed": true,
          "internalType": "uint256",
          "name": "tokenId",
          "type": "uint256"
        }
      ],
      "name": "Transfer",
      "type": "event"
    },
    {
      "inputs": [
        {
          "internalType": "address",
          "name": "to",
          "type": "address"
        },
        {
          "internalType": "uint256",
          "name": "tokenId",
          "type": "uint256"
        }
      ],
      "name": "approve",
      "outputs": [],
      "stateMutability": "nonpayable",
      "type": "function"
    },
    {
      "inputs": [
        {
          "internalType": "address",
          "name": "owner",
          "type": "address"
        }
      ],
      "name": "balanceOf",
      "outputs": [
        {
          "internalType": "uint256",
          "name": "",
          "type": "uint256"
        }
      ],
      "stateMutability": "view",
      "type": "function"
    },
    {
      "inputs": [
        {
          "internalType": "uint256",
          "name": "tokenId",
          "type": "uint256"
        }
      ],
      "name": "getApproved",
      "outputs": [
        {
          "internalType": "address",
          "name": "",
          "type": "address"
        }
      ],
      "stateMutability": "view",
      "type": "function"
    },
    {
      "inputs": [
        {
          "internalType": "address",
          "name": "owner",
          "type": "address"
        },
        {
          "internalType": "address",
          "name": "operator",
          "type": "address"
        }
      ],
      "name": "isApprovedForAll",
      "outputs": [
        {
          "internalType": "bool",
          "name": "",
          "type": "bool"
        }
      ],
      "stateMutability": "view",
      "type": "function"
    },
    {
      "inputs": [
        {
          "internalType": "address",
          "name": "to",
          "type": "address"
        }
      ],
      "name": "mint",
      "outputs": [
        {
          "internalType": "uint256",
          "name": "",
          "type": "uint256"
        }
      ],
      "stateMutability": "nonpayable",
      "type": "function"
    },
    {
      "inputs": [],
      "name": "name",
      "outputs": [
        {
          "internalType": "string",
          "name": "",
          "type": "string"
        }
      ],
      "stateMutability": "view",
      "type": "function"
    },
    {
      "inputs": [],
      "name": "owner",
      "outputs": [
        {
          "internalType": "address",
          "name": "",
          "type": "address"
        }
      ],
      "stateMutability": "view",
      "type": "function"
    },
    {
      "inputs": [
        {
          "internalType": "uint256",
          "name": "tokenId",
          "type": "uint256"
        }
      ],
      "name": "ownerOf",
      "outputs": [
        {
          "internalType": "address",
          "name": "",
          "type": "address"
        }
      ],
      "stateMutability": "view",
      "type": "function"
    },
    {
      "inputs": [
        {
          "internalType": "uint256",
          "name": "tokenID",
          "type": "uint256"
        }
      ],
      "name": "promptDescription",
      "outputs": [
        {
          "internalType": "string",
          "name": "",
          "type": "string"
        }
      ],
      "stateMutability": "view",
      "type": "function"
    },
    {
      "inputs": [],
      "name": "renounceOwnership",
      "outputs": [],
      "stateMutability": "nonpayable",
      "type": "function"
    },
    {
      "inputs": [
        {
          "internalType": "address",
          "name": "from",
          "type": "address"
        },
        {
          "internalType": "address",
          "name": "to",
          "type": "address"
        },
        {
          "internalType": "uint256",
          "name": "tokenId",
          "type": "uint256"
        }
      ],
      "name": "safeTransferFrom",
      "outputs": [],
      "stateMutability": "nonpayable",
      "type": "function"
    },
    {
      "inputs": [
        {
          "internalType": "address",
          "name": "from",
          "type": "address"
        },
        {
          "internalType": "address",
          "name": "to",
          "type": "address"
        },
        {
          "internalType": "uint256",
          "name": "tokenId",
          "type": "uint256"
        },
        {
          "internalType": "bytes",
          "name": "data",
          "type": "bytes"
        }
      ],
      "name": "safeTransferFrom",
      "outputs": [],
      "stateMutability": "nonpayable",
      "type": "function"
    },
    {
      "inputs": [
        {
          "internalType": "address",
          "name": "operator",
          "type": "address"
        },
        {
          "internalType": "bool",
          "name": "approved",
          "type": "bool"
        }
      ],
      "name": "setApprovalForAll",
      "outputs": [],
      "stateMutability": "nonpayable",
      "type": "function"
    },
    {
      "inputs": [
        {
          "internalType": "bytes4",
          "name": "interfaceId",
          "type": "bytes4"
        }
      ],
      "name": "supportsInterface",
      "outputs": [
        {
          "internalType": "bool",
          "name": "",
          "type": "bool"
        }
      ],
      "stateMutability": "view",
      "type": "function"
    },
    {
      "inputs": [],
      "name": "symbol",
      "outputs": [
        {
          "internalType": "string",
          "name": "",
          "type": "string"
        }
      ],
      "stateMutability": "view",
      "type": "function"
    },
    {
      "inputs": [
        {
          "internalType": "uint256",
          "name": "tokenId",
          "type": "uint256"
        }
      ],
      "name": "tokenURI",
      "outputs": [
        {
          "internalType": "string",
          "name": "",
          "type": "string"
        }
      ],
      "stateMutability": "view",
      "type": "function"
    },
    {
      "inputs": [
        {
          "internalType": "address",
          "name": "from",
          "type": "address"
        },
        {
          "internalType": "address",
          "name": "to",
          "type": "address"
        },
        {
          "internalType": "uint256",
          "name": "tokenId",
          "type": "uint256"
        }
      ],
      "name": "transferFrom",
      "outputs": [],
      "stateMutability": "nonpayable",
      "type": "function"
    },
    {
      "inputs": [
        {
          "internalType": "address",
          "name": "newOwner",
          "type": "address"
        }
      ],
      "name": "transferOwnership",
      "outputs": [],
      "stateMutability": "nonpayable",
      "type": "function"
    }
  ],
  "bytecode": "0x60806040526040518060a00160405280604051806080016040528060508152602001620031a4605091398152602001604051806080016040528060508152602001620032e460509139815260200160405180608001604052806050815260200162003244605091398152602001604051806080016040528060508152602001620031f460509139815260200160405180608001604052806050815260200162003294605091398152506008906005620000ba92919062000392565b506040518060a001604052806040518060400160405280600481526020017f4e4654310000000000000000000000000000000000000000000000000000000081525081526020016040518060400160405280600481526020017f4e4654320000000000000000000000000000000000000000000000000000000081525081526020016040518060400160405280600481526020017f4e4654330000000000000000000000000000000000000000000000000000000081525081526020016040518060400160405280600481526020017f4e4654340000000000000000000000000000000000000000000000000000000081525081526020016040518060400160405280600481526020017f4e465435000000000000000000000000000000000000000000000000000000008152508152506009906005620001fd92919062000392565b503480156200020b57600080fd5b506040518060400160405280600981526020017f5370696465726d616e00000000000000000000000000000000000000000000008152506040518060400160405280600281526020017f6b680000000000000000000000000000000000000000000000000000000000008152508160009081620002899190620006f9565b5080600190816200029b9190620006f9565b505050620002be620002b2620002c460201b60201c565b620002cc60201b60201c565b620007e0565b600033905090565b6000600660009054906101000a900473ffffffffffffffffffffffffffffffffffffffff16905081600660006101000a81548173ffffffffffffffffffffffffffffffffffffffff021916908373ffffffffffffffffffffffffffffffffffffffff1602179055508173ffffffffffffffffffffffffffffffffffffffff168173ffffffffffffffffffffffffffffffffffffffff167f8be0079c531659141344cd1fd0a4f28419497f9722a3daafe3b4186f6b6457e060405160405180910390a35050565b828054828255906000526020600020908101928215620003df579160200282015b82811115620003de578251829081620003cd9190620006f9565b5091602001919060010190620003b3565b5b509050620003ee9190620003f2565b5090565b5b808211156200041657600081816200040c91906200041a565b50600101620003f3565b5090565b5080546200042890620004e8565b6000825580601f106200043c57506200045d565b601f0160209004906000526020600020908101906200045c919062000460565b5b50565b5b808211156200047b57600081600090555060010162000461565b5090565b600081519050919050565b7f4e487b7100000000000000000000000000000000000000000000000000000000600052604160045260246000fd5b7f4e487b7100000000000000000000000000000000000000000000000000000000600052602260045260246000fd5b600060028204905060018216806200050157607f821691505b602082108103620005175762000516620004b9565b5b50919050565b60008190508160005260206000209050919050565b60006020601f8301049050919050565b600082821b905092915050565b600060088302620005817fffffffffffffffffffffffffffffffffffffffffffffffffffffffffffffffff8262000542565b6200058d868362000542565b95508019841693508086168417925050509392505050565b6000819050919050565b6000819050919050565b6000620005da620005d4620005ce84620005a5565b620005af565b620005a5565b9050919050565b6000819050919050565b620005f683620005b9565b6200060e6200060582620005e1565b8484546200054f565b825550505050565b600090565b6200062562000616565b62000632818484620005eb565b505050565b5b818110156200065a576200064e6000826200061b565b60018101905062000638565b5050565b601f821115620006a95762000673816200051d565b6200067e8462000532565b810160208510156200068e578190505b620006a66200069d8562000532565b83018262000637565b50505b505050565b600082821c905092915050565b6000620006ce60001984600802620006ae565b1980831691505092915050565b6000620006e98383620006bb565b9150826002028217905092915050565b62000704826200047f565b67ffffffffffffffff81111562000720576200071f6200048a565b5b6200072c8254620004e8565b620007398282856200065e565b600060209050601f8311600181146200077157600084156200075c578287015190505b620007688582620006db565b865550620007d8565b601f19841662000781866200051d565b60005b82811015620007ab5784890151825560018201915060208501945060208101905062000784565b86831015620007cb5784890151620007c7601f891682620006bb565b8355505b6001600288020188555050505b505050505050565b6129b480620007f06000396000f3fe608060405234801561001057600080fd5b50600436106101165760003560e01c8063715018a6116100a2578063a22cb46511610071578063a22cb465146102f3578063b88d4fde1461030f578063c87b56dd1461032b578063e985e9c51461035b578063f2fde38b1461038b57610116565b8063715018a61461027d5780638da5cb5b146102875780638e5a8638146102a557806395d89b41146102d557610116565b806323b872dd116100e957806323b872dd146101b557806342842e0e146101d15780636352211e146101ed5780636a6278421461021d57806370a082311461024d57610116565b806301ffc9a71461011b57806306fdde031461014b578063081812fc14610169578063095ea7b314610199575b600080fd5b61013560048036038101906101309190611b83565b6103a7565b6040516101429190611bcb565b60405180910390f35b610153610489565b6040516101609190611c76565b60405180910390f35b610183600480360381019061017e9190611cce565b61051b565b6040516101909190611d3c565b60405180910390f35b6101b360048036038101906101ae9190611d83565b610561565b005b6101cf60048036038101906101ca9190611dc3565b610678565b005b6101eb60048036038101906101e69190611dc3565b6106d8565b005b61020760048036038101906102029190611cce565b6106f8565b6040516102149190611d3c565b60405180910390f35b61023760048036038101906102329190611e16565b61077e565b6040516102449190611e52565b60405180910390f35b61026760048036038101906102629190611e16565b6107b3565b6040516102749190611e52565b60405180910390f35b61028561086a565b005b61028f61087e565b60405161029c9190611d3c565b60405180910390f35b6102bf60048036038101906102ba9190611cce565b6108a8565b6040516102cc9190611c76565b60405180910390f35b6102dd610958565b6040516102ea9190611c76565b60405180910390f35b61030d60048036038101906103089190611e99565b6109ea565b005b6103296004803603810190610324919061200e565b610a00565b005b61034560048036038101906103409190611cce565b610a62565b6040516103529190611c76565b60405180910390f35b61037560048036038101906103709190612091565b610aca565b6040516103829190611bcb565b60405180910390f35b6103a560048036038101906103a09190611e16565b610b5e565b005b60007f80ac58cd000000000000000000000000000000000000000000000000000000007bffffffffffffffffffffffffffffffffffffffffffffffffffffffff1916827bffffffffffffffffffffffffffffffffffffffffffffffffffffffff1916148061047257507f5b5e139f000000000000000000000000000000000000000000000000000000007bffffffffffffffffffffffffffffffffffffffffffffffffffffffff1916827bffffffffffffffffffffffffffffffffffffffffffffffffffffffff1916145b80610482575061048182610be1565b5b9050919050565b60606000805461049890612100565b80601f01602080910402602001604051908101604052809291908181526020018280546104c490612100565b80156105115780601f106104e657610100808354040283529160200191610511565b820191906000526020600020905b8154815290600101906020018083116104f457829003601f168201915b5050505050905090565b600061052682610c4b565b6004600083815260200190815260200160002060009054906101000a900473ffffffffffffffffffffffffffffffffffffffff169050919050565b600061056c826106f8565b90508073ffffffffffffffffffffffffffffffffffffffff168373ffffffffffffffffffffffffffffffffffffffff16036105dc576040517f08c379a00000000000000000000000000000000000000000000000000000000081526004016105d3906121a3565b60405180910390fd5b8073ffffffffffffffffffffffffffffffffffffffff166105fb610c96565b73ffffffffffffffffffffffffffffffffffffffff16148061062a575061062981610624610c96565b610aca565b5b610669576040517f08c379a000000000000000000000000000000000000000000000000000000000815260040161066090612235565b60405180910390fd5b6106738383610c9e565b505050565b610689610683610c96565b82610d57565b6106c8576040517f08c379a00000000000000000000000000000000000000000000000000000000081526004016106bf906122c7565b60405180910390fd5b6106d3838383610dec565b505050565b6106f383838360405180602001604052806000815250610a00565b505050565b600080610704836110e5565b9050600073ffffffffffffffffffffffffffffffffffffffff168173ffffffffffffffffffffffffffffffffffffffff1603610775576040517f08c379a000000000000000000000000000000000000000000000000000000000815260040161076c90612333565b60405180910390fd5b80915050919050565b6000610788611122565b61079260076111a0565b600061079e60076111b6565b90506107aa83826111c4565b80915050919050565b60008073ffffffffffffffffffffffffffffffffffffffff168273ffffffffffffffffffffffffffffffffffffffff1603610823576040517f08c379a000000000000000000000000000000000000000000000000000000000815260040161081a906123c5565b60405180910390fd5b600360008373ffffffffffffffffffffffffffffffffffffffff1673ffffffffffffffffffffffffffffffffffffffff168152602001908152602001600020549050919050565b610872611122565b61087c60006111e2565b565b6000600660009054906101000a900473ffffffffffffffffffffffffffffffffffffffff16905090565b6060600982815481106108be576108bd6123e5565b5b9060005260206000200180546108d390612100565b80601f01602080910402602001604051908101604052809291908181526020018280546108ff90612100565b801561094c5780601f106109215761010080835404028352916020019161094c565b820191906000526020600020905b81548152906001019060200180831161092f57829003601f168201915b50505050509050919050565b60606001805461096790612100565b80601f016020809104026020016040519081016040528092919081815260200182805461099390612100565b80156109e05780601f106109b5576101008083540402835291602001916109e0565b820191906000526020600020905b8154815290600101906020018083116109c357829003601f168201915b5050505050905090565b6109fc6109f5610c96565b83836112a8565b5050565b610a11610a0b610c96565b83610d57565b610a50576040517f08c379a0000000000000000000000000000000000000000000000000000000008152600401610a47906122c7565b60405180910390fd5b610a5c84848484611414565b50505050565b6060610a6d82610c4b565b6000610a77611470565b90506000815111610a975760405180602001604052806000815250610ac2565b80610aa184611487565b604051602001610ab2929190612450565b6040516020818303038152906040525b915050919050565b6000600560008473ffffffffffffffffffffffffffffffffffffffff1673ffffffffffffffffffffffffffffffffffffffff16815260200190815260200160002060008373ffffffffffffffffffffffffffffffffffffffff1673ffffffffffffffffffffffffffffffffffffffff16815260200190815260200160002060009054906101000a900460ff16905092915050565b610b66611122565b600073ffffffffffffffffffffffffffffffffffffffff168173ffffffffffffffffffffffffffffffffffffffff1603610bd5576040517f08c379a0000000000000000000000000000000000000000000000000000000008152600401610bcc906124e6565b60405180910390fd5b610bde816111e2565b50565b60007f01ffc9a7000000000000000000000000000000000000000000000000000000007bffffffffffffffffffffffffffffffffffffffffffffffffffffffff1916827bffffffffffffffffffffffffffffffffffffffffffffffffffffffff1916149050919050565b610c5481611555565b610c93576040517f08c379a0000000000000000000000000000000000000000000000000000000008152600401610c8a90612333565b60405180910390fd5b50565b600033905090565b816004600083815260200190815260200160002060006101000a81548173ffffffffffffffffffffffffffffffffffffffff021916908373ffffffffffffffffffffffffffffffffffffffff160217905550808273ffffffffffffffffffffffffffffffffffffffff16610d11836106f8565b73ffffffffffffffffffffffffffffffffffffffff167f8c5be1e5ebec7d5bd14f71427d1e84f3dd0314c0f7b2291e5b200ac8c7c3b92560405160405180910390a45050565b600080610d63836106f8565b90508073ffffffffffffffffffffffffffffffffffffffff168473ffffffffffffffffffffffffffffffffffffffff161480610da55750610da48185610aca565b5b80610de357508373ffffffffffffffffffffffffffffffffffffffff16610dcb8461051b565b73ffffffffffffffffffffffffffffffffffffffff16145b91505092915050565b8273ffffffffffffffffffffffffffffffffffffffff16610e0c826106f8565b73ffffffffffffffffffffffffffffffffffffffff1614610e62576040517f08c379a0000000000000000000000000000000000000000000000000000000008152600401610e5990612578565b60405180910390fd5b600073ffffffffffffffffffffffffffffffffffffffff168273ffffffffffffffffffffffffffffffffffffffff1603610ed1576040517f08c379a0000000000000000000000000000000000000000000000000000000008152600401610ec89061260a565b60405180910390fd5b610ede8383836001611596565b8273ffffffffffffffffffffffffffffffffffffffff16610efe826106f8565b73ffffffffffffffffffffffffffffffffffffffff1614610f54576040517f08c379a0000000000000000000000000000000000000000000000000000000008152600401610f4b90612578565b60405180910390fd5b6004600082815260200190815260200160002060006101000a81549073ffffffffffffffffffffffffffffffffffffffff02191690556001600360008573ffffffffffffffffffffffffffffffffffffffff1673ffffffffffffffffffffffffffffffffffffffff168152602001908152602001600020600082825403925050819055506001600360008473ffffffffffffffffffffffffffffffffffffffff1673ffffffffffffffffffffffffffffffffffffffff16815260200190815260200160002060008282540192505081905550816002600083815260200190815260200160002060006101000a81548173ffffffffffffffffffffffffffffffffffffffff021916908373ffffffffffffffffffffffffffffffffffffffff160217905550808273ffffffffffffffffffffffffffffffffffffffff168473ffffffffffffffffffffffffffffffffffffffff167fddf252ad1be2c89b69c2b068fc378daa952ba7f163c4a11628f55a4df523b3ef60405160405180910390a46110e0838383600161159c565b505050565b60006002600083815260200190815260200160002060009054906101000a900473ffffffffffffffffffffffffffffffffffffffff169050919050565b61112a610c96565b73ffffffffffffffffffffffffffffffffffffffff1661114861087e565b73ffffffffffffffffffffffffffffffffffffffff161461119e576040517f08c379a000000000000000000000000000000000000000000000000000000000815260040161119590612676565b60405180910390fd5b565b6001816000016000828254019250508190555050565b600081600001549050919050565b6111de8282604051806020016040528060008152506115a2565b5050565b6000600660009054906101000a900473ffffffffffffffffffffffffffffffffffffffff16905081600660006101000a81548173ffffffffffffffffffffffffffffffffffffffff021916908373ffffffffffffffffffffffffffffffffffffffff1602179055508173ffffffffffffffffffffffffffffffffffffffff168173ffffffffffffffffffffffffffffffffffffffff167f8be0079c531659141344cd1fd0a4f28419497f9722a3daafe3b4186f6b6457e060405160405180910390a35050565b8173ffffffffffffffffffffffffffffffffffffffff168373ffffffffffffffffffffffffffffffffffffffff1603611316576040517f08c379a000000000000000000000000000000000000000000000000000000000815260040161130d906126e2565b60405180910390fd5b80600560008573ffffffffffffffffffffffffffffffffffffffff1673ffffffffffffffffffffffffffffffffffffffff16815260200190815260200160002060008473ffffffffffffffffffffffffffffffffffffffff1673ffffffffffffffffffffffffffffffffffffffff16815260200190815260200160002060006101000a81548160ff0219169083151502179055508173ffffffffffffffffffffffffffffffffffffffff168373ffffffffffffffffffffffffffffffffffffffff167f17307eab39ab6107e8899845ad3d59bd9653f200f220920489ca2b5937696c31836040516114079190611bcb565b60405180910390a3505050565b61141f848484610dec565b61142b848484846115fd565b61146a576040517f08c379a000000000000000000000000000000000000000000000000000000000815260040161146190612774565b60405180910390fd5b50505050565b606060405180602001604052806000815250905090565b60606000600161149684611784565b01905060008167ffffffffffffffff8111156114b5576114b4611ee3565b5b6040519080825280601f01601f1916602001820160405280156114e75781602001600182028036833780820191505090505b509050600082602001820190505b60011561154a578080600190039150507f3031323334353637383961626364656600000000000000000000000000000000600a86061a8153600a858161153e5761153d612794565b5b049450600085036114f5575b819350505050919050565b60008073ffffffffffffffffffffffffffffffffffffffff16611577836110e5565b73ffffffffffffffffffffffffffffffffffffffff1614159050919050565b50505050565b50505050565b6115ac83836118d7565b6115b960008484846115fd565b6115f8576040517f08c379a00000000000000000000000000000000000000000000000000000000081526004016115ef90612774565b60405180910390fd5b505050565b600061161e8473ffffffffffffffffffffffffffffffffffffffff16611af4565b15611777578373ffffffffffffffffffffffffffffffffffffffff1663150b7a02611647610c96565b8786866040518563ffffffff1660e01b81526004016116699493929190612818565b6020604051808303816000875af19250505080156116a557506040513d601f19601f820116820180604052508101906116a29190612879565b60015b611727573d80600081146116d5576040519150601f19603f3d011682016040523d82523d6000602084013e6116da565b606091505b50600081510361171f576040517f08c379a000000000000000000000000000000000000000000000000000000000815260040161171690612774565b60405180910390fd5b805181602001fd5b63150b7a0260e01b7bffffffffffffffffffffffffffffffffffffffffffffffffffffffff1916817bffffffffffffffffffffffffffffffffffffffffffffffffffffffff19161491505061177c565b600190505b949350505050565b600080600090507a184f03e93ff9f4daa797ed6e38ed64bf6a1f01000000000000000083106117e2577a184f03e93ff9f4daa797ed6e38ed64bf6a1f01000000000000000083816117d8576117d7612794565b5b0492506040810190505b6d04ee2d6d415b85acef8100000000831061181f576d04ee2d6d415b85acef8100000000838161181557611814612794565b5b0492506020810190505b662386f26fc10000831061184e57662386f26fc10000838161184457611843612794565b5b0492506010810190505b6305f5e1008310611877576305f5e100838161186d5761186c612794565b5b0492506008810190505b612710831061189c57612710838161189257611891612794565b5b0492506004810190505b606483106118bf57606483816118b5576118b4612794565b5b0492506002810190505b600a83106118ce576001810190505b80915050919050565b600073ffffffffffffffffffffffffffffffffffffffff168273ffffffffffffffffffffffffffffffffffffffff1603611946576040517f08c379a000000000000000000000000000000000000000000000000000000000815260040161193d906128f2565b60405180910390fd5b61194f81611555565b1561198f576040517f08c379a00000000000000000000000000000000000000000000000000000000081526004016119869061295e565b60405180910390fd5b61199d600083836001611596565b6119a681611555565b156119e6576040517f08c379a00000000000000000000000000000000000000000000000000000000081526004016119dd9061295e565b60405180910390fd5b6001600360008473ffffffffffffffffffffffffffffffffffffffff1673ffffffffffffffffffffffffffffffffffffffff16815260200190815260200160002060008282540192505081905550816002600083815260200190815260200160002060006101000a81548173ffffffffffffffffffffffffffffffffffffffff021916908373ffffffffffffffffffffffffffffffffffffffff160217905550808273ffffffffffffffffffffffffffffffffffffffff16600073ffffffffffffffffffffffffffffffffffffffff167fddf252ad1be2c89b69c2b068fc378daa952ba7f163c4a11628f55a4df523b3ef60405160405180910390a4611af060008383600161159c565b5050565b6000808273ffffffffffffffffffffffffffffffffffffffff163b119050919050565b6000604051905090565b600080fd5b600080fd5b60007fffffffff0000000000000000000000000000000000000000000000000000000082169050919050565b611b6081611b2b565b8114611b6b57600080fd5b50565b600081359050611b7d81611b57565b92915050565b600060208284031215611b9957611b98611b21565b5b6000611ba784828501611b6e565b91505092915050565b60008115159050919050565b611bc581611bb0565b82525050565b6000602082019050611be06000830184611bbc565b92915050565b600081519050919050565b600082825260208201905092915050565b60005b83811015611c20578082015181840152602081019050611c05565b60008484015250505050565b6000601f19601f8301169050919050565b6000611c4882611be6565b611c528185611bf1565b9350611c62818560208601611c02565b611c6b81611c2c565b840191505092915050565b60006020820190508181036000830152611c908184611c3d565b905092915050565b6000819050919050565b611cab81611c98565b8114611cb657600080fd5b50565b600081359050611cc881611ca2565b92915050565b600060208284031215611ce457611ce3611b21565b5b6000611cf284828501611cb9565b91505092915050565b600073ffffffffffffffffffffffffffffffffffffffff82169050919050565b6000611d2682611cfb565b9050919050565b611d3681611d1b565b82525050565b6000602082019050611d516000830184611d2d565b92915050565b611d6081611d1b565b8114611d6b57600080fd5b50565b600081359050611d7d81611d57565b92915050565b60008060408385031215611d9a57611d99611b21565b5b6000611da885828601611d6e565b9250506020611db985828601611cb9565b9150509250929050565b600080600060608486031215611ddc57611ddb611b21565b5b6000611dea86828701611d6e565b9350506020611dfb86828701611d6e565b9250506040611e0c86828701611cb9565b9150509250925092565b600060208284031215611e2c57611e2b611b21565b5b6000611e3a84828501611d6e565b91505092915050565b611e4c81611c98565b82525050565b6000602082019050611e676000830184611e43565b92915050565b611e7681611bb0565b8114611e8157600080fd5b50565b600081359050611e9381611e6d565b92915050565b60008060408385031215611eb057611eaf611b21565b5b6000611ebe85828601611d6e565b9250506020611ecf85828601611e84565b9150509250929050565b600080fd5b600080fd5b7f4e487b7100000000000000000000000000000000000000000000000000000000600052604160045260246000fd5b611f1b82611c2c565b810181811067ffffffffffffffff82111715611f3a57611f39611ee3565b5b80604052505050565b6000611f4d611b17565b9050611f598282611f12565b919050565b600067ffffffffffffffff821115611f7957611f78611ee3565b5b611f8282611c2c565b9050602081019050919050565b82818337600083830152505050565b6000611fb1611fac84611f5e565b611f43565b905082815260208101848484011115611fcd57611fcc611ede565b5b611fd8848285611f8f565b509392505050565b600082601f830112611ff557611ff4611ed9565b5b8135612005848260208601611f9e565b91505092915050565b6000806000806080858703121561202857612027611b21565b5b600061203687828801611d6e565b945050602061204787828801611d6e565b935050604061205887828801611cb9565b925050606085013567ffffffffffffffff81111561207957612078611b26565b5b61208587828801611fe0565b91505092959194509250565b600080604083850312156120a8576120a7611b21565b5b60006120b685828601611d6e565b92505060206120c785828601611d6e565b9150509250929050565b7f4e487b7100000000000000000000000000000000000000000000000000000000600052602260045260246000fd5b6000600282049050600182168061211857607f821691505b60208210810361212b5761212a6120d1565b5b50919050565b7f4552433732313a20617070726f76616c20746f2063757272656e74206f776e6560008201527f7200000000000000000000000000000000000000000000000000000000000000602082015250565b600061218d602183611bf1565b915061219882612131565b604082019050919050565b600060208201905081810360008301526121bc81612180565b9050919050565b7f4552433732313a20617070726f76652063616c6c6572206973206e6f7420746f60008201527f6b656e206f776e6572206f7220617070726f76656420666f7220616c6c000000602082015250565b600061221f603d83611bf1565b915061222a826121c3565b604082019050919050565b6000602082019050818103600083015261224e81612212565b9050919050565b7f4552433732313a2063616c6c6572206973206e6f7420746f6b656e206f776e6560008201527f72206f7220617070726f76656400000000000000000000000000000000000000602082015250565b60006122b1602d83611bf1565b91506122bc82612255565b604082019050919050565b600060208201905081810360008301526122e0816122a4565b9050919050565b7f4552433732313a20696e76616c696420746f6b656e2049440000000000000000600082015250565b600061231d601883611bf1565b9150612328826122e7565b602082019050919050565b6000602082019050818103600083015261234c81612310565b9050919050565b7f4552433732313a2061646472657373207a65726f206973206e6f74206120766160008201527f6c6964206f776e65720000000000000000000000000000000000000000000000602082015250565b60006123af602983611bf1565b91506123ba82612353565b604082019050919050565b600060208201905081810360008301526123de816123a2565b9050919050565b7f4e487b7100000000000000000000000000000000000000000000000000000000600052603260045260246000fd5b600081905092915050565b600061242a82611be6565b6124348185612414565b9350612444818560208601611c02565b80840191505092915050565b600061245c828561241f565b9150612468828461241f565b91508190509392505050565b7f4f776e61626c653a206e6577206f776e657220697320746865207a65726f206160008201527f6464726573730000000000000000000000000000000000000000000000000000602082015250565b60006124d0602683611bf1565b91506124db82612474565b604082019050919050565b600060208201905081810360008301526124ff816124c3565b9050919050565b7f4552433732313a207472616e736665722066726f6d20696e636f72726563742060008201527f6f776e6572000000000000000000000000000000000000000000000000000000602082015250565b6000612562602583611bf1565b915061256d82612506565b604082019050919050565b6000602082019050818103600083015261259181612555565b9050919050565b7f4552433732313a207472616e7366657220746f20746865207a65726f2061646460008201527f7265737300000000000000000000000000000000000000000000000000000000602082015250565b60006125f4602483611bf1565b91506125ff82612598565b604082019050919050565b60006020820190508181036000830152612623816125e7565b9050919050565b7f4f776e61626c653a2063616c6c6572206973206e6f7420746865206f776e6572600082015250565b6000612660602083611bf1565b915061266b8261262a565b602082019050919050565b6000602082019050818103600083015261268f81612653565b9050919050565b7f4552433732313a20617070726f766520746f2063616c6c657200000000000000600082015250565b60006126cc601983611bf1565b91506126d782612696565b602082019050919050565b600060208201905081810360008301526126fb816126bf565b9050919050565b7f4552433732313a207472616e7366657220746f206e6f6e20455243373231526560008201527f63656976657220696d706c656d656e7465720000000000000000000000000000602082015250565b600061275e603283611bf1565b915061276982612702565b604082019050919050565b6000602082019050818103600083015261278d81612751565b9050919050565b7f4e487b7100000000000000000000000000000000000000000000000000000000600052601260045260246000fd5b600081519050919050565b600082825260208201905092915050565b60006127ea826127c3565b6127f481856127ce565b9350612804818560208601611c02565b61280d81611c2c565b840191505092915050565b600060808201905061282d6000830187611d2d565b61283a6020830186611d2d565b6128476040830185611e43565b818103606083015261285981846127df565b905095945050505050565b60008151905061287381611b57565b92915050565b60006020828403121561288f5761288e611b21565b5b600061289d84828501612864565b91505092915050565b7f4552433732313a206d696e7420746f20746865207a65726f2061646472657373600082015250565b60006128dc602083611bf1565b91506128e7826128a6565b602082019050919050565b6000602082019050818103600083015261290b816128cf565b9050919050565b7f4552433732313a20746f6b656e20616c7265616479206d696e74656400000000600082015250565b6000612948601c83611bf1565b915061295382612912565b602082019050919050565b600060208201905081810360008301526129778161293b565b905091905056fea26469706673582212205b3799f27e4c58233264d19d103fe14284486e792fa0ab99edfc9dd51d086ff264736f6c6343000812003368747470733a2f2f676174657761792e70696e6174612e636c6f75642f697066732f516d654843737a43724d4a44565a375a53743176666a355679597051426b5a58384e53423634736e4c547363346668747470733a2f2f676174657761792e70696e6174612e636c6f75642f697066732f516d61616b354d354c434b5354346474784231654b546f7058456f5a793569564a4d3972765658733338516b756d68747470733a2f2f676174657761792e70696e6174612e636c6f75642f697066732f516d56447a4354624d506751504a4a616d6d5a77703363767643757651446a7770627370384a755259646f4b4a5568747470733a2f2f676174657761792e70696e6174612e636c6f75642f697066732f516d51547a593369625a74396654793271354b4343336a457a64716f3854644651326668476a567769626968386b68747470733a2f2f676174657761792e70696e6174612e636c6f75642f697066732f516d546a523562314c56774377323154716e567a704a4d6b68616d357a6151446e716344624d597531587a4a6565",
  "linkReferences": {},
  "deployedLinkReferences": {}
}